BL51 BANKED LINKER/LOCATER V6.22.2.0                                                    06/10/2020  11:10:00  PAGE 1


BL51 BANKED LINKER/LOCATER V6.22.2.0, INVOKED BY:
C:\KEIL_V5\C51\BIN\BL51.EXE STARTUP.obj, 代码.obj TO 代码


MEMORY MODEL: SMALL


INPUT MODULES INCLUDED:
  STARTUP.obj (?C_STARTUP)
  代码.obj (____)


LINK MAP OF MODULE:  代码 (?C_STARTUP)


            TYPE    BASE      LENGTH    RELOCATION   SEGMENT NAME
            -----------------------------------------------------

            * * * * * * *   D A T A   M E M O R Y   * * * * * * *
            REG     0000H     0008H     ABSOLUTE     "REG BANK 0"
            IDATA   0008H     0001H     UNIT         ?STACK

            * * * * * * *   C O D E   M E M O R Y   * * * * * * *
            CODE    0000H     0003H     ABSOLUTE     
            CODE    0003H     0031H     UNIT         ?PR?MAIN?____
            CODE    0034H     001EH     UNIT         ?PR?_DELAY_MS?____
            CODE    0052H     000CH     UNIT         ?C_C51STARTUP



OVERLAY MAP OF MODULE:   代码 (?C_STARTUP)


SEGMENT
  +--> CALLED SEGMENT
---------------------
?C_C51STARTUP
  +--> ?PR?MAIN?____

?PR?MAIN?____
  +--> ?PR?_DELAY_MS?____



SYMBOL TABLE OF MODULE:  代码 (?C_STARTUP)

  VALUE           TYPE          NAME
  ----------------------------------

  -------         MODULE        ?C_STARTUP
  C:0052H         SEGMENT       ?C_C51STARTUP
  I:0008H         SEGMENT       ?STACK
  C:0000H         PUBLIC        ?C_STARTUP
  D:00E0H         SYMBOL        ACC
  D:00F0H         SYMBOL        B
  D:0083H         SYMBOL        DPH
  D:0082H         SYMBOL        DPL
  N:0000H         SYMBOL        IBPSTACK
BL51 BANKED LINKER/LOCATER V6.22.2.0                                                  06/10/2020  11:10:00  PAGE 2


  N:0100H         SYMBOL        IBPSTACKTOP
  N:0080H         SYMBOL        IDATALEN
  C:0055H         SYMBOL        IDATALOOP
  N:0000H         SYMBOL        PBPSTACK
  N:0100H         SYMBOL        PBPSTACKTOP
  N:0000H         SYMBOL        PDATALEN
  N:0000H         SYMBOL        PDATASTART
  N:0000H         SYMBOL        PPAGE
  N:0000H         SYMBOL        PPAGEENABLE
  D:00A0H         SYMBOL        PPAGE_SFR
  D:0081H         SYMBOL        SP
  C:0052H         SYMBOL        STARTUP1
  N:0000H         SYMBOL        XBPSTACK
  N:0000H         SYMBOL        XBPSTACKTOP
  N:0000H         SYMBOL        XDATALEN
  N:0000H         SYMBOL        XDATASTART
  C:0000H         LINE#         126
  C:0052H         LINE#         133
  C:0054H         LINE#         134
  C:0055H         LINE#         135
  C:0056H         LINE#         136
  C:0058H         LINE#         185
  C:005BH         LINE#         196
  -------         ENDMOD        ?C_STARTUP

  -------         MODULE        ____
  C:0000H         SYMBOL        _ICE_DUMMY_
  D:0080H         PUBLIC        P0
  D:00B2H         PUBLIC        P3M0
  D:0090H         PUBLIC        P1
  D:00B1H         PUBLIC        P3M1
  D:00A0H         PUBLIC        P2
  D:00B0H         PUBLIC        P3
  D:00C0H         PUBLIC        P4
  D:00C8H         PUBLIC        P5
  D:00E8H         PUBLIC        P6
  B:00B0H.4       PUBLIC        bridge_output
  D:00F8H         PUBLIC        P7
  D:00A8H         PUBLIC        IE
  D:00B8H         PUBLIC        IP
  D:00D8H         PUBLIC        CCON
  B:00B0H.2       PUBLIC        driver_output
  C:0003H         PUBLIC        main
  D:0098H         PUBLIC        SCON
  D:0088H         PUBLIC        TCON
  B:00B0H.5       PUBLIC        key
  C:0034H         PUBLIC        _delay_ms
  D:00D0H         PUBLIC        PSW
  -------         PROC          _DELAY_MS
  D:0006H         SYMBOL        z
  -------         DO            
  D:0006H         SYMBOL        x
  D:0004H         SYMBOL        y
  -------         ENDDO         
  C:0034H         LINE#         6
  C:0034H         LINE#         8
  C:003DH         LINE#         9
BL51 BANKED LINKER/LOCATER V6.22.2.0                                                  06/10/2020  11:10:00  PAGE 3


  C:0051H         LINE#         10
  -------         ENDPROC       _DELAY_MS
  -------         PROC          MAIN
  C:0003H         LINE#         12
  C:0003H         LINE#         14
  C:0006H         LINE#         15
  C:0009H         LINE#         18
  C:000BH         LINE#         19
  C:000DH         LINE#         20
  C:000FH         LINE#         22
  C:0016H         LINE#         23
  C:0016H         LINE#         24
  C:0019H         LINE#         25
  C:001BH         LINE#         26
  C:0022H         LINE#         27
  C:0024H         LINE#         28
  C:0024H         LINE#         29
  C:0027H         LINE#         30
  C:0029H         LINE#         31
  C:0030H         LINE#         32
  C:0032H         LINE#         33
  C:0032H         LINE#         34
  -------         ENDPROC       MAIN
  -------         ENDMOD        ____

Program Size: data=9.0 xdata=0 code=94
LINK/LOCATE RUN COMPLETE.  0 WARNING(S),  0 ERROR(S)
